{
  "_format": "hh-sol-artifact-1",
  "contractName": "Nuggz",
  "sourceName": "contracts/Nuggz.sol",
  "abi": [
    {
      "inputs": [],
      "stateMutability": "nonpayable",
      "type": "constructor"
    },
    {
      "anonymous": false,
      "inputs": [
        {
          "indexed": true,
          "internalType": "address",
          "name": "owner",
          "type": "address"
        },
        {
          "indexed": true,
          "internalType": "address",
          "name": "approved",
          "type": "address"
        },
        {
          "indexed": true,
          "internalType": "uint256",
          "name": "tokenId",
          "type": "uint256"
        }
      ],
      "name": "Approval",
      "type": "event"
    },
    {
      "anonymous": false,
      "inputs": [
        {
          "indexed": true,
          "internalType": "address",
          "name": "owner",
          "type": "address"
        },
        {
          "indexed": true,
          "internalType": "address",
          "name": "operator",
          "type": "address"
        },
        {
          "indexed": false,
          "internalType": "bool",
          "name": "approved",
          "type": "bool"
        }
      ],
      "name": "ApprovalForAll",
      "type": "event"
    },
    {
      "anonymous": false,
      "inputs": [
        {
          "indexed": true,
          "internalType": "address",
          "name": "previousOwner",
          "type": "address"
        },
        {
          "indexed": true,
          "internalType": "address",
          "name": "newOwner",
          "type": "address"
        }
      ],
      "name": "OwnershipTransferred",
      "type": "event"
    },
    {
      "anonymous": false,
      "inputs": [
        {
          "indexed": true,
          "internalType": "address",
          "name": "from",
          "type": "address"
        },
        {
          "indexed": true,
          "internalType": "address",
          "name": "to",
          "type": "address"
        },
        {
          "indexed": true,
          "internalType": "uint256",
          "name": "tokenId",
          "type": "uint256"
        }
      ],
      "name": "Transfer",
      "type": "event"
    },
    {
      "inputs": [],
      "name": "MAX_NUGGZ",
      "outputs": [
        {
          "internalType": "uint256",
          "name": "",
          "type": "uint256"
        }
      ],
      "stateMutability": "view",
      "type": "function"
    },
    {
      "inputs": [],
      "name": "PROV",
      "outputs": [
        {
          "internalType": "string",
          "name": "",
          "type": "string"
        }
      ],
      "stateMutability": "view",
      "type": "function"
    },
    {
      "inputs": [
        {
          "internalType": "address",
          "name": "to",
          "type": "address"
        },
        {
          "internalType": "uint256",
          "name": "tokenId",
          "type": "uint256"
        }
      ],
      "name": "approve",
      "outputs": [],
      "stateMutability": "nonpayable",
      "type": "function"
    },
    {
      "inputs": [
        {
          "internalType": "address",
          "name": "owner",
          "type": "address"
        }
      ],
      "name": "balanceOf",
      "outputs": [
        {
          "internalType": "uint256",
          "name": "",
          "type": "uint256"
        }
      ],
      "stateMutability": "view",
      "type": "function"
    },
    {
      "inputs": [],
      "name": "baseURI",
      "outputs": [
        {
          "internalType": "string",
          "name": "",
          "type": "string"
        }
      ],
      "stateMutability": "view",
      "type": "function"
    },
    {
      "inputs": [],
      "name": "flipSaleState",
      "outputs": [],
      "stateMutability": "nonpayable",
      "type": "function"
    },
    {
      "inputs": [
        {
          "internalType": "uint256",
          "name": "tokenId",
          "type": "uint256"
        }
      ],
      "name": "getApproved",
      "outputs": [
        {
          "internalType": "address",
          "name": "",
          "type": "address"
        }
      ],
      "stateMutability": "view",
      "type": "function"
    },
    {
      "inputs": [
        {
          "internalType": "address",
          "name": "owner",
          "type": "address"
        },
        {
          "internalType": "address",
          "name": "operator",
          "type": "address"
        }
      ],
      "name": "isApprovedForAll",
      "outputs": [
        {
          "internalType": "bool",
          "name": "",
          "type": "bool"
        }
      ],
      "stateMutability": "view",
      "type": "function"
    },
    {
      "inputs": [],
      "name": "maxNuggzPurchase",
      "outputs": [
        {
          "internalType": "uint256",
          "name": "",
          "type": "uint256"
        }
      ],
      "stateMutability": "view",
      "type": "function"
    },
    {
      "inputs": [
        {
          "internalType": "uint256",
          "name": "numberOfTokens",
          "type": "uint256"
        }
      ],
      "name": "mintNuggz",
      "outputs": [],
      "stateMutability": "payable",
      "type": "function"
    },
    {
      "inputs": [],
      "name": "name",
      "outputs": [
        {
          "internalType": "string",
          "name": "",
          "type": "string"
        }
      ],
      "stateMutability": "view",
      "type": "function"
    },
    {
      "inputs": [],
      "name": "nuggPrice",
      "outputs": [
        {
          "internalType": "uint256",
          "name": "",
          "type": "uint256"
        }
      ],
      "stateMutability": "view",
      "type": "function"
    },
    {
      "inputs": [],
      "name": "owner",
      "outputs": [
        {
          "internalType": "address",
          "name": "",
          "type": "address"
        }
      ],
      "stateMutability": "view",
      "type": "function"
    },
    {
      "inputs": [
        {
          "internalType": "uint256",
          "name": "tokenId",
          "type": "uint256"
        }
      ],
      "name": "ownerOf",
      "outputs": [
        {
          "internalType": "address",
          "name": "",
          "type": "address"
        }
      ],
      "stateMutability": "view",
      "type": "function"
    },
    {
      "inputs": [],
      "name": "renounceOwnership",
      "outputs": [],
      "stateMutability": "nonpayable",
      "type": "function"
    },
    {
      "inputs": [],
      "name": "reserveNuggz",
      "outputs": [],
      "stateMutability": "nonpayable",
      "type": "function"
    },
    {
      "inputs": [
        {
          "internalType": "address",
          "name": "from",
          "type": "address"
        },
        {
          "internalType": "address",
          "name": "to",
          "type": "address"
        },
        {
          "internalType": "uint256",
          "name": "tokenId",
          "type": "uint256"
        }
      ],
      "name": "safeTransferFrom",
      "outputs": [],
      "stateMutability": "nonpayable",
      "type": "function"
    },
    {
      "inputs": [
        {
          "internalType": "address",
          "name": "from",
          "type": "address"
        },
        {
          "internalType": "address",
          "name": "to",
          "type": "address"
        },
        {
          "internalType": "uint256",
          "name": "tokenId",
          "type": "uint256"
        },
        {
          "internalType": "bytes",
          "name": "_data",
          "type": "bytes"
        }
      ],
      "name": "safeTransferFrom",
      "outputs": [],
      "stateMutability": "nonpayable",
      "type": "function"
    },
    {
      "inputs": [],
      "name": "saleIsActive",
      "outputs": [
        {
          "internalType": "bool",
          "name": "",
          "type": "bool"
        }
      ],
      "stateMutability": "view",
      "type": "function"
    },
    {
      "inputs": [
        {
          "internalType": "address",
          "name": "operator",
          "type": "address"
        },
        {
          "internalType": "bool",
          "name": "approved",
          "type": "bool"
        }
      ],
      "name": "setApprovalForAll",
      "outputs": [],
      "stateMutability": "nonpayable",
      "type": "function"
    },
    {
      "inputs": [
        {
          "internalType": "string",
          "name": "baseURI",
          "type": "string"
        }
      ],
      "name": "setBaseURI",
      "outputs": [],
      "stateMutability": "nonpayable",
      "type": "function"
    },
    {
      "inputs": [
        {
          "internalType": "bytes4",
          "name": "interfaceId",
          "type": "bytes4"
        }
      ],
      "name": "supportsInterface",
      "outputs": [
        {
          "internalType": "bool",
          "name": "",
          "type": "bool"
        }
      ],
      "stateMutability": "view",
      "type": "function"
    },
    {
      "inputs": [],
      "name": "symbol",
      "outputs": [
        {
          "internalType": "string",
          "name": "",
          "type": "string"
        }
      ],
      "stateMutability": "view",
      "type": "function"
    },
    {
      "inputs": [
        {
          "internalType": "uint256",
          "name": "index",
          "type": "uint256"
        }
      ],
      "name": "tokenByIndex",
      "outputs": [
        {
          "internalType": "uint256",
          "name": "",
          "type": "uint256"
        }
      ],
      "stateMutability": "view",
      "type": "function"
    },
    {
      "inputs": [
        {
          "internalType": "address",
          "name": "owner",
          "type": "address"
        },
        {
          "internalType": "uint256",
          "name": "index",
          "type": "uint256"
        }
      ],
      "name": "tokenOfOwnerByIndex",
      "outputs": [
        {
          "internalType": "uint256",
          "name": "",
          "type": "uint256"
        }
      ],
      "stateMutability": "view",
      "type": "function"
    },
    {
      "inputs": [
        {
          "internalType": "uint256",
          "name": "tokenId",
          "type": "uint256"
        }
      ],
      "name": "tokenURI",
      "outputs": [
        {
          "internalType": "string",
          "name": "",
          "type": "string"
        }
      ],
      "stateMutability": "view",
      "type": "function"
    },
    {
      "inputs": [],
      "name": "totalSupply",
      "outputs": [
        {
          "internalType": "uint256",
          "name": "",
          "type": "uint256"
        }
      ],
      "stateMutability": "view",
      "type": "function"
    },
    {
      "inputs": [
        {
          "internalType": "address",
          "name": "from",
          "type": "address"
        },
        {
          "internalType": "address",
          "name": "to",
          "type": "address"
        },
        {
          "internalType": "uint256",
          "name": "tokenId",
          "type": "uint256"
        }
      ],
      "name": "transferFrom",
      "outputs": [],
      "stateMutability": "nonpayable",
      "type": "function"
    },
    {
      "inputs": [
        {
          "internalType": "address",
          "name": "newOwner",
          "type": "address"
        }
      ],
      "name": "transferOwnership",
      "outputs": [],
      "stateMutability": "nonpayable",
      "type": "function"
    },
    {
      "inputs": [],
      "name": "withdraw",
      "outputs": [],
      "stateMutability": "nonpayable",
      "type": "function"
    }
  ],
  "bytecode": "0x608060405260405180606001604052806040815260200162003e9760409139600b9080519060200190620000359291906200032c565b50600a600c556001600d60006101000a81548160ff0219169083151502179055503480156200006357600080fd5b506040518060400160405280600581526020017f4e7567677a0000000000000000000000000000000000000000000000000000008152506040518060400160405280600481526020017f4e55474700000000000000000000000000000000000000000000000000000000815250620000e86301ffc9a760e01b6200021b60201b60201c565b8160069080519060200190620001009291906200032c565b508060079080519060200190620001199291906200032c565b50620001326380ac58cd60e01b6200021b60201b60201c565b6200014a635b5e139f60e01b6200021b60201b60201c565b6200016263780e9d6360e01b6200021b60201b60201c565b50506000620001766200032460201b60201c565b905080600a60006101000a81548173ffffffffffffffffffffffffffffffffffffffff021916908373ffffffffffffffffffffffffffffffffffffffff1602179055508073ffffffffffffffffffffffffffffffffffffffff16600073ffffffffffffffffffffffffffffffffffffffff167f8be0079c531659141344cd1fd0a4f28419497f9722a3daafe3b4186f6b6457e060405160405180910390a350620003d2565b63ffffffff60e01b817bffffffffffffffffffffffffffffffffffffffffffffffffffffffff19161415620002b8576040517f08c379a000000000000000000000000000000000000000000000000000000000815260040180806020018281038252601c8152602001807f4552433136353a20696e76616c696420696e746572666163652069640000000081525060200191505060405180910390fd5b6001600080837bffffffffffffffffffffffffffffffffffffffffffffffffffffffff19167bffffffffffffffffffffffffffffffffffffffffffffffffffffffff1916815260200190815260200160002060006101000a81548160ff02191690831515021790555050565b600033905090565b828054600181600116156101000203166002900490600052602060002090601f016020900481019282601f106200036f57805160ff1916838001178555620003a0565b82800160010185558215620003a0579182015b828111156200039f57825182559160200191906001019062000382565b5b509050620003af9190620003b3565b5090565b5b80821115620003ce576000816000905550600101620003b4565b5090565b613ab580620003e26000396000f3fe6080604052600436106101cd5760003560e01c806355f804b3116100f75780639920103111610095578063c87b56dd11610064578063c87b56dd14610b6e578063e985e9c514610c22578063eb8d244414610ca9578063f2fde38b14610cd6576101cd565b806399201031146109bd578063a22cb465146109d4578063b28a244714610a31578063b88d4fde14610a5c576101cd565b806370a08231116100d157806370a0823114610870578063715018a6146108d55780638da5cb5b146108ec57806395d89b411461092d576101cd565b806355f804b3146106b35780636352211e1461077b5780636c0360eb146107e0576101cd565b806323b872dd1161016f5780633ccfd60b1161013e5780633ccfd60b1461054257806342842e0e146105595780634d96ca2b146105d45780634f6ccce714610664576101cd565b806323b872dd146104165780632f745c591461049157806334918dfd1461050057806338766fe714610517576101cd565b8063095ea7b3116101ab578063095ea7b314610337578063102edee7146103925780631278343e146103c057806318160ddd146103eb576101cd565b806301ffc9a7146101d257806306fdde0314610242578063081812fc146102d2575b600080fd5b3480156101de57600080fd5b5061022a600480360360208110156101f557600080fd5b8101908080357bffffffffffffffffffffffffffffffffffffffffffffffffffffffff19169060200190929190505050610d27565b60405180821515815260200191505060405180910390f35b34801561024e57600080fd5b50610257610d8e565b6040518080602001828103825283818151815260200191508051906020019080838360005b8381101561029757808201518184015260208101905061027c565b50505050905090810190601f1680156102c45780820380516001836020036101000a031916815260200191505b509250505060405180910390f35b3480156102de57600080fd5b5061030b600480360360208110156102f557600080fd5b8101908080359060200190929190505050610e30565b604051808273ffffffffffffffffffffffffffffffffffffffff16815260200191505060405180910390f35b34801561034357600080fd5b506103906004803603604081101561035a57600080fd5b81019080803573ffffffffffffffffffffffffffffffffffffffff16906020019092919080359060200190929190505050610ecb565b005b6103be600480360360208110156103a857600080fd5b810190808035906020019092919050505061100f565b005b3480156103cc57600080fd5b506103d5611216565b6040518082815260200191505060405180910390f35b3480156103f757600080fd5b50610400611221565b6040518082815260200191505060405180910390f35b34801561042257600080fd5b5061048f6004803603606081101561043957600080fd5b81019080803573ffffffffffffffffffffffffffffffffffffffff169060200190929190803573ffffffffffffffffffffffffffffffffffffffff16906020019092919080359060200190929190505050611232565b005b34801561049d57600080fd5b506104ea600480360360408110156104b457600080fd5b81019080803573ffffffffffffffffffffffffffffffffffffffff169060200190929190803590602001909291905050506112a8565b6040518082815260200191505060405180910390f35b34801561050c57600080fd5b50610515611303565b005b34801561052357600080fd5b5061052c6113de565b6040518082815260200191505060405180910390f35b34801561054e57600080fd5b506105576113e4565b005b34801561056557600080fd5b506105d26004803603606081101561057c57600080fd5b81019080803573ffffffffffffffffffffffffffffffffffffffff169060200190929190803573ffffffffffffffffffffffffffffffffffffffff169060200190929190803590602001909291905050506114e2565b005b3480156105e057600080fd5b506105e9611502565b6040518080602001828103825283818151815260200191508051906020019080838360005b8381101561062957808201518184015260208101905061060e565b50505050905090810190601f1680156106565780820380516001836020036101000a031916815260200191505b509250505060405180910390f35b34801561067057600080fd5b5061069d6004803603602081101561068757600080fd5b81019080803590602001909291905050506115a0565b6040518082815260200191505060405180910390f35b3480156106bf57600080fd5b50610779600480360360208110156106d657600080fd5b81019080803590602001906401000000008111156106f357600080fd5b82018360208201111561070557600080fd5b8035906020019184600183028401116401000000008311171561072757600080fd5b91908080601f016020809104026020016040519081016040528093929190818152602001838380828437600081840152601f19601f8201169050808301925050505050505091929192905050506115c3565b005b34801561078757600080fd5b506107b46004803603602081101561079e57600080fd5b810190808035906020019092919050505061167e565b604051808273ffffffffffffffffffffffffffffffffffffffff16815260200191505060405180910390f35b3480156107ec57600080fd5b506107f56116b5565b6040518080602001828103825283818151815260200191508051906020019080838360005b8381101561083557808201518184015260208101905061081a565b50505050905090810190601f1680156108625780820380516001836020036101000a031916815260200191505b509250505060405180910390f35b34801561087c57600080fd5b506108bf6004803603602081101561089357600080fd5b81019080803573ffffffffffffffffffffffffffffffffffffffff169060200190929190505050611757565b6040518082815260200191505060405180910390f35b3480156108e157600080fd5b506108ea61182c565b005b3480156108f857600080fd5b5061090161199c565b604051808273ffffffffffffffffffffffffffffffffffffffff16815260200191505060405180910390f35b34801561093957600080fd5b506109426119c6565b6040518080602001828103825283818151815260200191508051906020019080838360005b83811015610982578082015181840152602081019050610967565b50505050905090810190601f1680156109af5780820380516001836020036101000a031916815260200191505b509250505060405180910390f35b3480156109c957600080fd5b506109d2611a68565b005b3480156109e057600080fd5b50610a2f600480360360408110156109f757600080fd5b81019080803573ffffffffffffffffffffffffffffffffffffffff169060200190929190803515159060200190929190505050611b4c565b005b348015610a3d57600080fd5b50610a46611d02565b6040518082815260200191505060405180910390f35b348015610a6857600080fd5b50610b6c60048036036080811015610a7f57600080fd5b81019080803573ffffffffffffffffffffffffffffffffffffffff169060200190929190803573ffffffffffffffffffffffffffffffffffffffff1690602001909291908035906020019092919080359060200190640100000000811115610ae657600080fd5b820183602082011115610af857600080fd5b80359060200191846001830284011164010000000083111715610b1a57600080fd5b91908080601f016020809104026020016040519081016040528093929190818152602001838380828437600081840152601f19601f820116905080830192505050505050509192919290505050611d07565b005b348015610b7a57600080fd5b50610ba760048036036020811015610b9157600080fd5b8101908080359060200190929190505050611d7f565b6040518080602001828103825283818151815260200191508051906020019080838360005b83811015610be7578082015181840152602081019050610bcc565b50505050905090810190601f168015610c145780820380516001836020036101000a031916815260200191505b509250505060405180910390f35b348015610c2e57600080fd5b50610c9160048036036040811015610c4557600080fd5b81019080803573ffffffffffffffffffffffffffffffffffffffff169060200190929190803573ffffffffffffffffffffffffffffffffffffffff169060200190929190505050612050565b60405180821515815260200191505060405180910390f35b348015610cb557600080fd5b50610cbe6120e4565b60405180821515815260200191505060405180910390f35b348015610ce257600080fd5b50610d2560048036036020811015610cf957600080fd5b81019080803573ffffffffffffffffffffffffffffffffffffffff1690602001909291905050506120f7565b005b6000806000837bffffffffffffffffffffffffffffffffffffffffffffffffffffffff19167bffffffffffffffffffffffffffffffffffffffffffffffffffffffff1916815260200190815260200160002060009054906101000a900460ff169050919050565b606060068054600181600116156101000203166002900480601f016020809104026020016040519081016040528092919081815260200182805460018160011615610100020316600290048015610e265780601f10610dfb57610100808354040283529160200191610e26565b820191906000526020600020905b815481529060010190602001808311610e0957829003601f168201915b5050505050905090565b6000610e3b826122ec565b610e90576040517f08c379a000000000000000000000000000000000000000000000000000000000815260040180806020018281038252602c815260200180613960602c913960400191505060405180910390fd5b6004600083815260200190815260200160002060009054906101000a900473ffffffffffffffffffffffffffffffffffffffff169050919050565b6000610ed68261167e565b90508073ffffffffffffffffffffffffffffffffffffffff168373ffffffffffffffffffffffffffffffffffffffff161415610f5d576040517f08c379a0000000000000000000000000000000000000000000000000000000008152600401808060200182810382526021815260200180613a0d6021913960400191505060405180910390fd5b8073ffffffffffffffffffffffffffffffffffffffff16610f7c612309565b73ffffffffffffffffffffffffffffffffffffffff161480610fab5750610faa81610fa5612309565b612050565b5b611000576040517f08c379a00000000000000000000000000000000000000000000000000000000081526004018080602001828103825260388152602001806138926038913960400191505060405180910390fd5b61100a8383612311565b505050565b600d60009054906101000a900460ff16611074576040517f08c379a000000000000000000000000000000000000000000000000000000000815260040180806020018281038252602181526020018061381f6021913960400191505060405180910390fd5b600a8111156110ce576040517f08c379a0000000000000000000000000000000000000000000000000000000008152600401808060200182810382526021815260200180613a5f6021913960400191505060405180910390fd5b600c546110eb826110dd611221565b6123ca90919063ffffffff16565b1115611142576040517f08c379a000000000000000000000000000000000000000000000000000000000815260040180806020018281038252602981526020018061398c6029913960400191505060405180910390fd5b3461115d8266470de4df82000061245290919063ffffffff16565b11156111d1576040517f08c379a000000000000000000000000000000000000000000000000000000000815260040180806020018281038252601f8152602001807f45746865722076616c75652073656e74206973206e6f7420636f72726563740081525060200191505060405180910390fd5b60005b818110156112125760006111e6611221565b9050600c546111f3611221565b10156112045761120333826124d8565b5b5080806001019150506111d4565b5050565b66470de4df82000081565b600061122d60026124f6565b905090565b61124361123d612309565b8261250b565b611298576040517f08c379a0000000000000000000000000000000000000000000000000000000008152600401808060200182810382526031815260200180613a2e6031913960400191505060405180910390fd5b6112a38383836125ff565b505050565b60006112fb82600160008673ffffffffffffffffffffffffffffffffffffffff1673ffffffffffffffffffffffffffffffffffffffff16815260200190815260200160002061284290919063ffffffff16565b905092915050565b61130b612309565b73ffffffffffffffffffffffffffffffffffffffff1661132961199c565b73ffffffffffffffffffffffffffffffffffffffff16146113b2576040517f08c379a00000000000000000000000000000000000000000000000000000000081526004018080602001828103825260208152602001807f4f776e61626c653a2063616c6c6572206973206e6f7420746865206f776e657281525060200191505060405180910390fd5b600d60009054906101000a900460ff1615600d60006101000a81548160ff021916908315150217905550565b600c5481565b6113ec612309565b73ffffffffffffffffffffffffffffffffffffffff1661140a61199c565b73ffffffffffffffffffffffffffffffffffffffff1614611493576040517f08c379a00000000000000000000000000000000000000000000000000000000081526004018080602001828103825260208152602001807f4f776e61626c653a2063616c6c6572206973206e6f7420746865206f776e657281525060200191505060405180910390fd5b60004790503373ffffffffffffffffffffffffffffffffffffffff166108fc829081150290604051600060405180830381858888f193505050501580156114de573d6000803e3d6000fd5b5050565b6114fd83838360405180602001604052806000815250611d07565b505050565b600b8054600181600116156101000203166002900480601f0160208091040260200160405190810160405280929190818152602001828054600181600116156101000203166002900480156115985780601f1061156d57610100808354040283529160200191611598565b820191906000526020600020905b81548152906001019060200180831161157b57829003601f168201915b505050505081565b6000806115b783600261285c90919063ffffffff16565b50905080915050919050565b6115cb612309565b73ffffffffffffffffffffffffffffffffffffffff166115e961199c565b73ffffffffffffffffffffffffffffffffffffffff1614611672576040517f08c379a00000000000000000000000000000000000000000000000000000000081526004018080602001828103825260208152602001807f4f776e61626c653a2063616c6c6572206973206e6f7420746865206f776e657281525060200191505060405180910390fd5b61167b81612888565b50565b60006116ae826040518060600160405280602981526020016138f46029913960026128a29092919063ffffffff16565b9050919050565b606060098054600181600116156101000203166002900480601f01602080910402602001604051908101604052809291908181526020018280546001816001161561010002031660029004801561174d5780601f106117225761010080835404028352916020019161174d565b820191906000526020600020905b81548152906001019060200180831161173057829003601f168201915b5050505050905090565b60008073ffffffffffffffffffffffffffffffffffffffff168273ffffffffffffffffffffffffffffffffffffffff1614156117de576040517f08c379a000000000000000000000000000000000000000000000000000000000815260040180806020018281038252602a8152602001806138ca602a913960400191505060405180910390fd5b611825600160008473ffffffffffffffffffffffffffffffffffffffff1673ffffffffffffffffffffffffffffffffffffffff1681526020019081526020016000206128c1565b9050919050565b611834612309565b73ffffffffffffffffffffffffffffffffffffffff1661185261199c565b73ffffffffffffffffffffffffffffffffffffffff16146118db576040517f08c379a00000000000000000000000000000000000000000000000000000000081526004018080602001828103825260208152602001807f4f776e61626c653a2063616c6c6572206973206e6f7420746865206f776e657281525060200191505060405180910390fd5b600073ffffffffffffffffffffffffffffffffffffffff16600a60009054906101000a900473ffffffffffffffffffffffffffffffffffffffff1673ffffffffffffffffffffffffffffffffffffffff167f8be0079c531659141344cd1fd0a4f28419497f9722a3daafe3b4186f6b6457e060405160405180910390a36000600a60006101000a81548173ffffffffffffffffffffffffffffffffffffffff021916908373ffffffffffffffffffffffffffffffffffffffff160217905550565b6000600a60009054906101000a900473ffffffffffffffffffffffffffffffffffffffff16905090565b606060078054600181600116156101000203166002900480601f016020809104026020016040519081016040528092919081815260200182805460018160011615610100020316600290048015611a5e5780601f10611a3357610100808354040283529160200191611a5e565b820191906000526020600020905b815481529060010190602001808311611a4157829003601f168201915b5050505050905090565b611a70612309565b73ffffffffffffffffffffffffffffffffffffffff16611a8e61199c565b73ffffffffffffffffffffffffffffffffffffffff1614611b17576040517f08c379a00000000000000000000000000000000000000000000000000000000081526004018080602001828103825260208152602001807f4f776e61626c653a2063616c6c6572206973206e6f7420746865206f776e657281525060200191505060405180910390fd5b6000611b21611221565b905060005b6028811015611b4857611b3b338284016124d8565b8080600101915050611b26565b5050565b611b54612309565b73ffffffffffffffffffffffffffffffffffffffff168273ffffffffffffffffffffffffffffffffffffffff161415611bf5576040517f08c379a00000000000000000000000000000000000000000000000000000000081526004018080602001828103825260198152602001807f4552433732313a20617070726f766520746f2063616c6c65720000000000000081525060200191505060405180910390fd5b8060056000611c02612309565b73ffffffffffffffffffffffffffffffffffffffff1673ffffffffffffffffffffffffffffffffffffffff16815260200190815260200160002060008473ffffffffffffffffffffffffffffffffffffffff1673ffffffffffffffffffffffffffffffffffffffff16815260200190815260200160002060006101000a81548160ff0219169083151502179055508173ffffffffffffffffffffffffffffffffffffffff16611caf612309565b73ffffffffffffffffffffffffffffffffffffffff167f17307eab39ab6107e8899845ad3d59bd9653f200f220920489ca2b5937696c318360405180821515815260200191505060405180910390a35050565b600a81565b611d18611d12612309565b8361250b565b611d6d576040517f08c379a0000000000000000000000000000000000000000000000000000000008152600401808060200182810382526031815260200180613a2e6031913960400191505060405180910390fd5b611d79848484846128d6565b50505050565b6060611d8a826122ec565b611ddf576040517f08c379a000000000000000000000000000000000000000000000000000000000815260040180806020018281038252602f8152602001806139de602f913960400191505060405180910390fd5b6060600860008481526020019081526020016000208054600181600116156101000203166002900480601f016020809104026020016040519081016040528092919081815260200182805460018160011615610100020316600290048015611e885780601f10611e5d57610100808354040283529160200191611e88565b820191906000526020600020905b815481529060010190602001808311611e6b57829003601f168201915b505050505090506060611e996116b5565b9050600081511415611eaf57819250505061204b565b600082511115611f805780826040516020018083805190602001908083835b60208310611ef15780518252602082019150602081019050602083039250611ece565b6001836020036101000a03801982511681845116808217855250505050505090500182805190602001908083835b60208310611f425780518252602082019150602081019050602083039250611f1f565b6001836020036101000a038019825116818451168082178552505050505050905001925050506040516020818303038152906040529250505061204b565b80611f8a85612948565b6040516020018083805190602001908083835b60208310611fc05780518252602082019150602081019050602083039250611f9d565b6001836020036101000a03801982511681845116808217855250505050505090500182805190602001908083835b602083106120115780518252602082019150602081019050602083039250611fee565b6001836020036101000a03801982511681845116808217855250505050505090500192505050604051602081830303815290604052925050505b919050565b6000600560008473ffffffffffffffffffffffffffffffffffffffff1673ffffffffffffffffffffffffffffffffffffffff16815260200190815260200160002060008373ffffffffffffffffffffffffffffffffffffffff1673ffffffffffffffffffffffffffffffffffffffff16815260200190815260200160002060009054906101000a900460ff16905092915050565b600d60009054906101000a900460ff1681565b6120ff612309565b73ffffffffffffffffffffffffffffffffffffffff1661211d61199c565b73ffffffffffffffffffffffffffffffffffffffff16146121a6576040517f08c379a00000000000000000000000000000000000000000000000000000000081526004018080602001828103825260208152602001807f4f776e61626c653a2063616c6c6572206973206e6f7420746865206f776e657281525060200191505060405180910390fd5b600073ffffffffffffffffffffffffffffffffffffffff168173ffffffffffffffffffffffffffffffffffffffff16141561222c576040517f08c379a00000000000000000000000000000000000000000000000000000000081526004018080602001828103825260268152602001806137d56026913960400191505060405180910390fd5b8073ffffffffffffffffffffffffffffffffffffffff16600a60009054906101000a900473ffffffffffffffffffffffffffffffffffffffff1673ffffffffffffffffffffffffffffffffffffffff167f8be0079c531659141344cd1fd0a4f28419497f9722a3daafe3b4186f6b6457e060405160405180910390a380600a60006101000a81548173ffffffffffffffffffffffffffffffffffffffff021916908373ffffffffffffffffffffffffffffffffffffffff16021790555050565b6000612302826002612a8f90919063ffffffff16565b9050919050565b600033905090565b816004600083815260200190815260200160002060006101000a81548173ffffffffffffffffffffffffffffffffffffffff021916908373ffffffffffffffffffffffffffffffffffffffff160217905550808273ffffffffffffffffffffffffffffffffffffffff166123848361167e565b73ffffffffffffffffffffffffffffffffffffffff167f8c5be1e5ebec7d5bd14f71427d1e84f3dd0314c0f7b2291e5b200ac8c7c3b92560405160405180910390a45050565b600080828401905083811015612448576040517f08c379a000000000000000000000000000000000000000000000000000000000815260040180806020018281038252601b8152602001807f536166654d6174683a206164646974696f6e206f766572666c6f77000000000081525060200191505060405180910390fd5b8091505092915050565b60008083141561246557600090506124d2565b600082840290508284828161247657fe5b04146124cd576040517f08c379a000000000000000000000000000000000000000000000000000000000815260040180806020018281038252602181526020018061393f6021913960400191505060405180910390fd5b809150505b92915050565b6124f2828260405180602001604052806000815250612aa9565b5050565b600061250482600001612b1a565b9050919050565b6000612516826122ec565b61256b576040517f08c379a000000000000000000000000000000000000000000000000000000000815260040180806020018281038252602c815260200180613866602c913960400191505060405180910390fd5b60006125768361167e565b90508073ffffffffffffffffffffffffffffffffffffffff168473ffffffffffffffffffffffffffffffffffffffff1614806125e557508373ffffffffffffffffffffffffffffffffffffffff166125cd84610e30565b73ffffffffffffffffffffffffffffffffffffffff16145b806125f657506125f58185612050565b5b91505092915050565b8273ffffffffffffffffffffffffffffffffffffffff1661261f8261167e565b73ffffffffffffffffffffffffffffffffffffffff161461268b576040517f08c379a00000000000000000000000000000000000000000000000000000000081526004018080602001828103825260298152602001806139b56029913960400191505060405180910390fd5b600073ffffffffffffffffffffffffffffffffffffffff168273ffffffffffffffffffffffffffffffffffffffff161415612711576040517f08c379a00000000000000000000000000000000000000000000000000000000081526004018080602001828103825260248152602001806137fb6024913960400191505060405180910390fd5b61271c838383612b2b565b612727600082612311565b61277881600160008673ffffffffffffffffffffffffffffffffffffffff1673ffffffffffffffffffffffffffffffffffffffff168152602001908152602001600020612b3090919063ffffffff16565b506127ca81600160008573ffffffffffffffffffffffffffffffffffffffff1673ffffffffffffffffffffffffffffffffffffffff168152602001908152602001600020612b4a90919063ffffffff16565b506127e181836002612b649092919063ffffffff16565b50808273ffffffffffffffffffffffffffffffffffffffff168473ffffffffffffffffffffffffffffffffffffffff167fddf252ad1be2c89b69c2b068fc378daa952ba7f163c4a11628f55a4df523b3ef60405160405180910390a4505050565b60006128518360000183612b99565b60001c905092915050565b60008060008061286f8660000186612c1c565b915091508160001c8160001c9350935050509250929050565b806009908051906020019061289e9291906136e3565b5050565b60006128b5846000018460001b84612cb5565b60001c90509392505050565b60006128cf82600001612dab565b9050919050565b6128e18484846125ff565b6128ed84848484612dbc565b612942576040517f08c379a00000000000000000000000000000000000000000000000000000000081526004018080602001828103825260328152602001806137a36032913960400191505060405180910390fd5b50505050565b60606000821415612990576040518060400160405280600181526020017f30000000000000000000000000000000000000000000000000000000000000008152509050612a8a565b600082905060005b600082146129ba578080600101915050600a82816129b257fe5b049150612998565b60608167ffffffffffffffff811180156129d357600080fd5b506040519080825280601f01601f191660200182016040528015612a065781602001600182028036833780820191505090505b50905060006001830390508593505b60008414612a8257600a8481612a2757fe5b0660300160f81b82828060019003935081518110612a4157fe5b60200101907effffffffffffffffffffffffffffffffffffffffffffffffffffffffffffff1916908160001a905350600a8481612a7a57fe5b049350612a15565b819450505050505b919050565b6000612aa1836000018360001b612fd5565b905092915050565b612ab38383612ff8565b612ac06000848484612dbc565b612b15576040517f08c379a00000000000000000000000000000000000000000000000000000000081526004018080602001828103825260328152602001806137a36032913960400191505060405180910390fd5b505050565b600081600001805490509050919050565b505050565b6000612b42836000018360001b6131ec565b905092915050565b6000612b5c836000018360001b6132d4565b905092915050565b6000612b90846000018460001b8473ffffffffffffffffffffffffffffffffffffffff1660001b613344565b90509392505050565b600081836000018054905011612bfa576040517f08c379a00000000000000000000000000000000000000000000000000000000081526004018080602001828103825260228152602001806137816022913960400191505060405180910390fd5b826000018281548110612c0957fe5b9060005260206000200154905092915050565b60008082846000018054905011612c7e576040517f08c379a000000000000000000000000000000000000000000000000000000000815260040180806020018281038252602281526020018061391d6022913960400191505060405180910390fd5b6000846000018481548110612c8f57fe5b906000526020600020906002020190508060000154816001015492509250509250929050565b60008084600101600085815260200190815260200160002054905060008114158390612d7c576040517f08c379a00000000000000000000000000000000000000000000000000000000081526004018080602001828103825283818151815260200191508051906020019080838360005b83811015612d41578082015181840152602081019050612d26565b50505050905090810190601f168015612d6e5780820380516001836020036101000a031916815260200191505b509250505060405180910390fd5b50846000016001820381548110612d8f57fe5b9060005260206000209060020201600101549150509392505050565b600081600001805490509050919050565b6000612ddd8473ffffffffffffffffffffffffffffffffffffffff16613420565b612dea5760019050612fcd565b6060612f5463150b7a0260e01b612dff612309565b888787604051602401808573ffffffffffffffffffffffffffffffffffffffff1681526020018473ffffffffffffffffffffffffffffffffffffffff16815260200183815260200180602001828103825283818151815260200191508051906020019080838360005b83811015612e83578082015181840152602081019050612e68565b50505050905090810190601f168015612eb05780820380516001836020036101000a031916815260200191505b5095505050505050604051602081830303815290604052907bffffffffffffffffffffffffffffffffffffffffffffffffffffffff19166020820180517bffffffffffffffffffffffffffffffffffffffffffffffffffffffff83818316178352505050506040518060600160405280603281526020016137a3603291398773ffffffffffffffffffffffffffffffffffffffff166134339092919063ffffffff16565b90506000818060200190516020811015612f6d57600080fd5b8101908080519060200190929190505050905063150b7a0260e01b7bffffffffffffffffffffffffffffffffffffffffffffffffffffffff1916817bffffffffffffffffffffffffffffffffffffffffffffffffffffffff191614925050505b949350505050565b600080836001016000848152602001908152602001600020541415905092915050565b600073ffffffffffffffffffffffffffffffffffffffff168273ffffffffffffffffffffffffffffffffffffffff16141561309b576040517f08c379a00000000000000000000000000000000000000000000000000000000081526004018080602001828103825260208152602001807f4552433732313a206d696e7420746f20746865207a65726f206164647265737381525060200191505060405180910390fd5b6130a4816122ec565b15613117576040517f08c379a000000000000000000000000000000000000000000000000000000000815260040180806020018281038252601c8152602001807f4552433732313a20746f6b656e20616c7265616479206d696e7465640000000081525060200191505060405180910390fd5b61312360008383612b2b565b61317481600160008573ffffffffffffffffffffffffffffffffffffffff1673ffffffffffffffffffffffffffffffffffffffff168152602001908152602001600020612b4a90919063ffffffff16565b5061318b81836002612b649092919063ffffffff16565b50808273ffffffffffffffffffffffffffffffffffffffff16600073ffffffffffffffffffffffffffffffffffffffff167fddf252ad1be2c89b69c2b068fc378daa952ba7f163c4a11628f55a4df523b3ef60405160405180910390a45050565b600080836001016000848152602001908152602001600020549050600081146132c8576000600182039050600060018660000180549050039050600086600001828154811061323757fe5b906000526020600020015490508087600001848154811061325457fe5b906000526020600020018190555060018301876001016000838152602001908152602001600020819055508660000180548061328c57fe5b600190038181906000526020600020016000905590558660010160008781526020019081526020016000206000905560019450505050506132ce565b60009150505b92915050565b60006132e0838361344b565b61333957826000018290806001815401808255809150506001900390600052602060002001600090919091909150558260000180549050836001016000848152602001908152602001600020819055506001905061333e565b600090505b92915050565b60008084600101600085815260200190815260200160002054905060008114156133eb57846000016040518060400160405280868152602001858152509080600181540180825580915050600190039060005260206000209060020201600090919091909150600082015181600001556020820151816001015550508460000180549050856001016000868152602001908152602001600020819055506001915050613419565b828560000160018303815481106133fe57fe5b90600052602060002090600202016001018190555060009150505b9392505050565b600080823b905060008111915050919050565b6060613442848460008561346e565b90509392505050565b600080836001016000848152602001908152602001600020541415905092915050565b6060824710156134c9576040517f08c379a00000000000000000000000000000000000000000000000000000000081526004018080602001828103825260268152602001806138406026913960400191505060405180910390fd5b6134d285613420565b613544576040517f08c379a000000000000000000000000000000000000000000000000000000000815260040180806020018281038252601d8152602001807f416464726573733a2063616c6c20746f206e6f6e2d636f6e747261637400000081525060200191505060405180910390fd5b600060608673ffffffffffffffffffffffffffffffffffffffff1685876040518082805190602001908083835b602083106135945780518252602082019150602081019050602083039250613571565b6001836020036101000a03801982511681845116808217855250505050505090500191505060006040518083038185875af1925050503d80600081146135f6576040519150601f19603f3d011682016040523d82523d6000602084013e6135fb565b606091505b509150915061360b828286613617565b92505050949350505050565b60608315613627578290506136dc565b60008351111561363a5782518084602001fd5b816040517f08c379a00000000000000000000000000000000000000000000000000000000081526004018080602001828103825283818151815260200191508051906020019080838360005b838110156136a1578082015181840152602081019050613686565b50505050905090810190601f1680156136ce5780820380516001836020036101000a031916815260200191505b509250505060405180910390fd5b9392505050565b828054600181600116156101000203166002900490600052602060002090601f016020900481019282601f1061372457805160ff1916838001178555613752565b82800160010185558215613752579182015b82811115613751578251825591602001919060010190613736565b5b50905061375f9190613763565b5090565b5b8082111561377c576000816000905550600101613764565b509056fe456e756d657261626c655365743a20696e646578206f7574206f6620626f756e64734552433732313a207472616e7366657220746f206e6f6e20455243373231526563656976657220696d706c656d656e7465724f776e61626c653a206e6577206f776e657220697320746865207a65726f20616464726573734552433732313a207472616e7366657220746f20746865207a65726f206164647265737353616c65206d7573742062652061637469766520746f206d696e74204e7567677a416464726573733a20696e73756666696369656e742062616c616e636520666f722063616c6c4552433732313a206f70657261746f7220717565727920666f72206e6f6e6578697374656e7420746f6b656e4552433732313a20617070726f76652063616c6c6572206973206e6f74206f776e6572206e6f7220617070726f76656420666f7220616c6c4552433732313a2062616c616e636520717565727920666f7220746865207a65726f20616464726573734552433732313a206f776e657220717565727920666f72206e6f6e6578697374656e7420746f6b656e456e756d657261626c654d61703a20696e646578206f7574206f6620626f756e6473536166654d6174683a206d756c7469706c69636174696f6e206f766572666c6f774552433732313a20617070726f76656420717565727920666f72206e6f6e6578697374656e7420746f6b656e507572636861736520776f756c6420657863656564206d617820737570706c79206f66204e7567677a4552433732313a207472616e73666572206f6620746f6b656e2074686174206973206e6f74206f776e4552433732314d657461646174613a2055524920717565727920666f72206e6f6e6578697374656e7420746f6b656e4552433732313a20617070726f76616c20746f2063757272656e74206f776e65724552433732313a207472616e736665722063616c6c6572206973206e6f74206f776e6572206e6f7220617070726f76656443616e206f6e6c79206d696e7420313020746f6b656e7320617420612074696d65a264697066735822122007cd0787614c0d306202e6518aa432c14f55d6a3ba955c0581703e516d06bb9964736f6c6343000703003362383064363061346465666363613561663365643635323664386330663836303839623934303036353963383964613262323732356233326638363836643461",
  "linkReferences": {},
  "deployedLinkReferences": {}
}